:100000000C945F000C9487000C9487000C9487007C
:100010000C9487000C9487000C9487000C94870044
:100020000C9487000C9487000C9468040C94C6030D
:100030000C9410050C9487000C9487000C94870096
:100040000C9470050C9487000C9497010C94DA01C1
:100050000C9487000C9487000C9487000C94870004
:100060000C9487000C948700000000070002010038
:100070000003040600000000000000000102040864
:100080001020408001020408102001020408102002
:10009000040404040404040402020202020203032E
:1000A0000303030300000000250028002B000000CC
:1000B0000000240027002A00AA009602C100112493
:1000C0001FBECFEFD8E0DEBFCDBF11E0A0E0B1E0B2
:1000D000EEEBFDE002C005900D92A032B107D9F71A
:1000E00022E0A0E2B1E001C01D92A438B207E1F71E
:1000F00010E0CCEBD0E004C02297FE010E94BF06C6
:10010000C83BD107C9F70E94F8000C948D060C94E7
:10011000000040E855E260E070E08DE291E00E946E
:1001200015026FE675E080E090E00C94240381E214
:1001300091E00E941503892B61F081E291E00E9419
:10014000EC02682F6F77609320018DE291E00C94B0
:10015000F1000895109224011092230188EE93E09B
:10016000A0E0B0E08093250190932601A0932701A1
:10017000B093280184E191E09093220180932101C2
:10018000089584E191E090932201809321010C94E1
:100190005C05CF92DF92EF92FF920F931F93CF9364
:1001A000DF936C017A01EB01E60EF71E00E010E030
:1001B000CE15DF0561F06991D601ED91FC910190BA
:1001C000F081E02DC6010995080F191FF1CFC80174
:1001D000DF91CF911F910F91FF90EF90DF90CF9023
:1001E0000895DC01ED91FC910190F081E02D0994DE
:1001F0000E94BA050E948900C1EDD1E00E949700DB
:100200002097E1F30E94D101F9CFFC0124853585C7
:10021000F901E05CFF4F808191813296208131812C
:10022000821B930B8F7399270895FC018485958514
:10023000FC01E05CFF4F4081518132962081318189
:100240004217530741F00190F081E02DE80FF91FAC
:10025000808190E008958FEF9FEF0895FC018485E1
:100260009585FC01E05CFF4F4081518132962081F1
:1002700031814217530779F0A081B181A80FB91FCE
:100280008C91208131812F5F3F4F2F733327318332
:10029000208390E008958FEF9FEF0895FC0181A1E6
:1002A000882329F0A489B5898C9186FFFBCF11A200
:1002B0000895CF93DF93FC0126853785D901A05C93
:1002C000BF4F8D919C91119701968F739927E901EA
:1002D000CE5BDF4F4881598184179507D9F30D9084
:1002E000BC91A02DA20FB31F6C93A685B785A05C0F
:1002F000BF4F11969C938E93A689B7892C9181E06C
:1003000090E0078C02C0880F991F0A94E2F7282B0F
:100310002C9381E081A30488F589E02D808180649D
:10032000808381E090E0DF91CF91089508951F923E
:100330000F920FB60F9211242F933F934F938F93E9
:100340009F93EF93FF938091C00082FD1CC040916A
:10035000C6008091D3019091D40101968F739927A3
:100360002091D5013091D6018217930771F0E09169
:10037000D301F091D401ED56FE4F40839093D40108
:100380008093D30102C08091C600FF91EF919F91AD
:100390008F914F913F912F910F900FBE0F901F9013
:1003A00018958DE291E00E940501892B11F00C94C3
:1003B000960108951F920F920FB60F9211242F935A
:1003C0003F938F939F93EF93FF9320918F013091F1
:1003D000900180919101909192012817390731F491
:1003E0008091C1008F7D8093C10014C0E091910184
:1003F000F0919201E15BFE4F2081809191019091FB
:10040000920101968F7399279093920180939101A5
:100410002093C600FF91EF919F918F913F912F9173
:100420000F900FBE0F901F901895CF92DF92EF9212
:10043000FF92CF93DF93EC016A017B01411581EEBE
:10044000580761057105F9F0EC89FD8981E090E0BC
:1004500008A002C0880F991F0A94E2F7808360E029
:1004600079E08DE390E0A70196010E94900621506B
:100470003109410951095695479537952795211519
:1004800080E1380798F0EC89FD89108260E874E813
:100490008EE190E0A70196010E949006215031095B
:1004A000410951095695479537952795E889F98966
:1004B0003083EA89FB89208319A2EE89FF89408174
:1004C00081E090E09C010C8C02C0220F331F0A9443
:1004D000E2F7422B4083EE89FF8940819C010D8C1D
:1004E00002C0220F331F0A94E2F7422B4083EE89A9
:1004F000FF8940819C010E8C02C0220F331F0A9499
:10050000E2F7422B4083EE89FF8920810F8C02C0E5
:10051000880F991F0A94E2F7809582238083DF91E8
:10052000CF91FF90EF90DF90CF900895109230011F
:1005300010922F0188EE93E0A0E0B0E080933101AB
:1005400090933201A0933301B093340184E091E0A1
:1005500090932E0180932D0183E991E090933A01CD
:10056000809339018FE491E090933C0180933B01AB
:1005700085EC90E090933E0180933D0184EC90E007
:100580009093400180933F0180EC90E09093420172
:100590008093410181EC90E090934401809343016A
:1005A00082EC90E0909346018093450186EC90E0C8
:1005B000909348018093470184E08093490183E050
:1005C00080934A0187E080934B0185E080934C0142
:1005D00081E080934D0108958091710290917002A5
:1005E000891769F09F5F903508F090E0E92FF0E0FF
:1005F000E05EFD4F80819093700290E008958FEF50
:100600009FEF089580917102E09170028E1751F072
:10061000EF5FE03508F0E0E0F0E0E05EFD4F808164
:1006200090E008958FEF9FEF0895509171024091EF
:100630007002852F90E0242F30E0541710F4805B77
:100640009F4F821B930B08959B01AC01213688E1DB
:1006500038074105510530F410926F001092800068
:1006600081E825C073E056954795379527957A958B
:10067000D1F7213688E138074105510530F4109251
:100680006F001092800082E812C065E05695479591
:10069000379527956A95D1F7213688E138074105C6
:1006A0005105B0F510926F001092800084E880939D
:1006B000810030937A0220937902A5E2B0E00E9493
:1006C000B20622E096958795779567952A95D1F79A
:1006D000709373026093720262E088E00E941E06CB
:1006E00061E089E00E94570661E089E00E941E06F1
:1006F00010927802109271021092700210921F02F2
:1007000010921C0210921B0280E286BB80936F0045
:10071000089590911C029F5F943408F090E020911E
:100720001B022917E1F32FB7F89430911F023323EE
:1007300041F0E92FF0E0E952FE4F808390931C02D4
:100740001DC091E090931F0280931E0210921D0223
:1007500082E086BB80916F00826080936F00809101
:1007600080008F73806880938000809184009091D6
:100770008500409690938900809388002FBF08954C
:10078000862F0E94890381E090E008951F920F92C6
:100790000FB60F9211242F933F934F935F936F9354
:1007A0007F938F939F93EF93FF9340911F025091FC
:1007B0001E028091880090918900209179023091E9
:1007C0007A0270911D024A3008F5820F931F49305A
:1007D00019F0652F617001C061E056954F5F671792
:1007E00091F320918000662311F0206C02C02F73DA
:1007F0002068209380009093890080938800609304
:100800001D0250931E0240931F024CC050911C02C7
:10081000E0911B025E1319C04A3051F44BE0409343
:100820001F02820F931F90938900809388003AC023
:1008300010921F02809180008F73809380008091BE
:100840006F008D7F80936F002DC0EF5FE43408F060
:10085000E0E0E0931B02F0E0E952FE4F208120939C
:100860001E0210921D02209180002F732068209399
:1008700080004A3059F42091790230917A02280F91
:10088000391F309389002093880009C0809184002B
:10089000909185004096909389008093880081E034
:1008A00080931F02FF91EF919F918F917F916F91A4
:1008B0005F914F913F912F910F900FBE0F901F901E
:1008C000189580911F028111FCCF08950C9461044A
:1008D0001F920F920FB60F9211242F933F934F93B5
:1008E0005F936F937F938F939F93AF93EF93FF9358
:1008F000409186005091870090917602809181000E
:10090000992331F08F7B809381001092760206C08C
:1009100080648093810080E880937602E091780281
:10092000E11125C091116CC0809172029091730207
:10093000840F951F90938B0080938A0084E086BB80
:1009400080916F00846080936F0080917902909114
:100950007A02480F591F96958795480F591F509353
:1009600075024093740281E08093780249C08091BF
:100970007402909175022091790230917A02B90146
:1009800060957095A0917602F0917702481B590B03
:100990006417750768F1F695FA2B820F931FEF5FC6
:1009A000421B530BE930A0F3F093770280916F0064
:1009B0008B7F80936F00809171028F5F803508F08C
:1009C00080E090917002891749F0E82FF0E0909153
:1009D0007702E05EFD4F90838093710280918100E9
:1009E0008F7B80938100109276021092780208C06B
:1009F000F09377029093750280937402E0937802EB
:100A0000FF91EF91AF919F918F917F916F915F9146
:100A10004F913F912F910F900FBE0F901F901895FF
:100A20001F920F920FB60F9211242F938F939F93C3
:100A3000EF93FF9380916F008B7F80936F00809185
:100A400081008F7B809381008091780220917602D3
:100A5000205890917702893020F496958F5F922BE1
:100A6000FACF90937702809171028F5F803508F002
:100A700080E020917002821739F0E82FF0E0E05E0C
:100A8000FD4F9083809371021092780280918100D3
:100A90008F7B8093810010927602FF91EF919F915E
:100AA0008F912F910F900FBE0F901F9018958091EE
:100AB0007002809371020895CF93DF93CFE6D0E068
:100AC00088818B7F888388818F7D88830E945705EA
:100AD0000E94610488818D7F8883DF91CF91089582
:100AE0001F920F920FB60F9211242F933F938F9363
:100AF0009F93AF93BF9380917C0290917D02A091D0
:100B00007E02B0917F0230917B0223E0230F2D37CC
:100B100020F40196A11DB11D05C026E8230F029601
:100B2000A11DB11D20937B0280937C0290937D02D6
:100B3000A0937E02B0937F02809180029091810207
:100B4000A0918202B09183020196A11DB11D8093F4
:100B5000800290938102A0938202B0938302BF919E
:100B6000AF919F918F913F912F910F900FBE0F905A
:100B70001F901895789484B5826084BD84B5816097
:100B800084BD85B5826085BD85B5816085BDEEE695
:100B9000F0E0808181608083E1E8F0E01082808174
:100BA00082608083808181608083E0E8F0E08081E2
:100BB00081608083E1EBF0E0808184608083E0EB02
:100BC000F0E0808181608083EAE7F0E080818460EA
:100BD0008083808182608083808181608083808146
:100BE000806880831092C1000895833081F028F4DA
:100BF000813099F08230A1F008958630A9F08730D5
:100C0000B9F08430D1F4809180008F7D03C0809151
:100C100080008F7780938000089584B58F7702C01D
:100C200084B58F7D84BD08958091B0008F7703C017
:100C30008091B0008F7D8093B0000895CF93DF93B3
:100C400090E0FC01E458FF4F2491FC01E057FF4F76
:100C50008491882349F190E0880F991FFC01E255A7
:100C6000FF4FA591B4918C559F4FFC01C591D49134
:100C70009FB7611108C0F8948C91209582238C93C2
:100C8000888182230AC0623051F4F8948C91322F0B
:100C9000309583238C938881822B888304C0F894B9
:100CA0008C91822B8C939FBFDF91CF9108950F93EE
:100CB0001F93CF93DF931F92CDB7DEB7282F30E07D
:100CC000F901E859FF4F8491F901E458FF4F14915D
:100CD000F901E057FF4F04910023C9F0882321F068
:100CE00069830E94F5056981E02FF0E0EE0FFF1F98
:100CF000EC55FF4FA591B4919FB7F8948C91611179
:100D000003C01095812301C0812B8C939FBF0F904E
:100D1000DF91CF911F910F910895F8940C94D20612
:100D2000A1E21A2EAA1BBB1BFD010DC0AA1FBB1FEF
:100D3000EE1FFF1FA217B307E407F50720F0A21B61
:100D4000B30BE40BF50B661F771F881F991F1A94CE
:100D500069F760957095809590959B01AC01BD01F8
:100D6000CF0108950E94C306A59F900DB49F900DDA
:100D7000A49F800D911D11240895EE0FFF1F059073
:100D8000F491E02D0994A29FB001B39FC001A39FED
:100D9000700D811D1124911DB29F700D811D1124B4
:100DA000911D089510E0CCEBD0E004C0FE010E943C
:0E0DB000BF062296CE3BD107C9F7F894FFCFBD
:100DBE00000000005901C90005012E0115014E0168
:100DCE0000000000C003C9001503EC020203660414
:00000001FF
