:100000000C9435000C945D000C945D000C945D0024
:100010000C945D000C945D000C945D000C945D00EC
:100020000C945D000C945D000C945D000C945D00DC
:100030000C945D000C945D000C945D000C945D00CC
:100040000C9473000C945D000C944B020C948E0283
:100050000C945D000C945D000C945D000C945D00AC
:100060000C945D000C945D004A0311241FBECFEF79
:10007000D8E0DEBFCDBF11E0A0E0B1E0EAE9F7E0F3
:1000800002C005900D92A831B107D9F721E0A8E18F
:10009000B1E001C01D92AB3CB207E1F710E0CAE647
:1000A000D0E004C02297FE010E94C703C836D107E2
:1000B000C9F70E94AC010C94A0030C94000040E826
:1000C00055E260E070E081E291E00C94C90260E0EA
:1000D00071E081E291E00E949A0168EE73E080E0B5
:1000E00090E00C94E0001F920F920FB60F92112433
:1000F0002F933F938F939F93AF93BF938091190159
:1001000090911A01A0911B01B0911C01309118012E
:1001100023E0230F2D3720F40196A11DB11D05C04A
:1001200026E8230F0296A11DB11D2093180180938C
:10013000190190931A01A0931B01B0931C018091A7
:100140001D0190911E01A0911F01B0912001019607
:10015000A11DB11D80931D0190931E01A0931F014D
:10016000B0932001BF91AF919F918F913F912F91BB
:100170000F900FBE0F901F9018953FB7F894809185
:100180001D0190911E01A0911F01B091200126B583
:10019000A89B05C02F3F19F00196A11DB11D3FBFBF
:1001A0006627782F892F9A2F620F711D811D911D4F
:1001B00042E0660F771F881F991F4A95D1F708956F
:1001C000CF92DF92EF92FF92CF93DF936B017C018E
:1001D0000E94BD00EB01C114D104E104F10479F0E7
:1001E0000E94BD006C1B7D0B683E7340A0F381E054
:1001F000C81AD108E108F108C851DC4FECCFDF91F3
:10020000CF91FF90EF90DF90CF900895789484B5D0
:10021000826084BD84B5816084BD85B5826085BD02
:1002200085B5816085BDEEE6F0E0808181608083E8
:10023000E1E8F0E0108280818260808380818160CB
:100240008083E0E8F0E0808181608083E1EBF0E092
:10025000808184608083E0EBF0E080818160808336
:10026000EAE7F0E08081846080838081826080831F
:100270008081816080838081806880831092C1004A
:100280000895CF92DF92EF92FF920F931F93CF9337
:10029000DF936C017A01EB01E60EF71E00E010E03F
:1002A000CE15DF0561F06991D601ED91FC910190C9
:1002B000F081E02DC6010995080F191FF1CFC80183
:1002C000DF91CF911F910F91FF90EF90DF90CF9032
:1002D00008956115710581F0DB010D900020E9F7AB
:1002E000AD0141505109461B570BDC01ED91FC91CA
:1002F0000280F381E02D099480E090E00895DC0114
:10030000ED91FC910190F081E02D09940F931F93E2
:10031000CF93DF93EC016DE00E947F018C016AE0D6
:10032000CE010E947F01800F911FDF91CF911F911D
:100330000F9108950F931F93CF93DF93EC010E94C9
:1003400069018C01CE010E948601800F911FDF910F
:10035000CF911F910F9108950E9406010E945F00A6
:10036000C5E8D2E00E9467002097E1F30E94850271
:10037000F9CFFC0124853585F901E05CFF4F8081D0
:100380009181329620813181821B930B8F73992743
:100390000895FC0184859585FC01E05CFF4F408158
:1003A00051813296208131814217530741F00190EB
:1003B000F081E02DE80FF91F808190E008958FEF24
:1003C0009FEF0895FC0184859585FC01E05CFF4F5B
:1003D000408151813296208131814217530779F053
:1003E000A081B181A80FB91F8C91208131812F5F2D
:1003F0003F4F2F7333273183208390E008958FEF91
:100400009FEF0895FC0181A1882329F0A489B58973
:100410008C9186FFFBCF11A20895CF93DF93FC014F
:1004200026853785D901A05CBF4F8D919C9111978E
:1004300001968F739927E901CE5BDF4F488159817F
:1004400084179507D9F30D90BC91A02DA20FB31F6F
:100450006C93A685B785A05CBF4F11969C938E9335
:10046000A689B7892C9181E090E0078C02C0880FA3
:10047000991F0A94E2F7282B2C9381E081A304882A
:10048000F589E02D80818064808381E090E0DF91B8
:10049000CF91089508951F920F920FB60F921124D5
:1004A0002F933F934F938F939F93EF93FF9380915D
:1004B000C00082FD1CC04091C6008091C701909190
:1004C000C80101968F7399272091C9013091CA0103
:1004D0008217930771F0E091C701F091C801E957C5
:1004E000FE4F40839093C8018093C70102C0809162
:1004F000C600FF91EF919F918F914F913F912F9166
:100500000F900FBE0F901F90189581E291E00E940E
:10051000B901892B11F00C944A0208951F920F9291
:100520000FB60F9211242F933F938F939F93EF93C6
:10053000FF932091830130918401809185019091F6
:1005400086012817390731F48091C1008F7D80938F
:10055000C10014C0E0918501F0918601ED5BFE4F72
:100560002081809185019091860101968F73992752
:1005700090938601809385012093C600FF91EF91AF
:100580009F918F913F912F910F900FBE0F901F90D1
:100590001895CF92DF92EF92FF92CF93DF93EC0109
:1005A0006A017B01411581EE580761057105F9F07B
:1005B000EC89FD8981E090E008A002C0880F991FB6
:1005C0000A94E2F7808360E079E08DE390E0A70190
:1005D00096010E94A3032150310941095109569502
:1005E000479537952795211580E1380798F0EC89D4
:1005F000FD89108260E874E88EE190E0A701960121
:100600000E94A3032150310941095109569547958C
:1006100037952795E889F9893083EA89FB89208312
:1006200019A2EE89FF89408181E090E09C010C8C49
:1006300002C0220F331F0A94E2F7422B4083EE8957
:10064000FF8940819C010D8C02C0220F331F0A9448
:10065000E2F7422B4083EE89FF8940819C010E8C9A
:1006600002C0220F331F0A94E2F7422B4083EE8927
:10067000FF8920810F8C02C0880F991F0A94E2F72E
:10068000809582238083DF91CF91FF90EF90DF9060
:10069000CF900895109224011092230188EE93E0E8
:1006A000A0E0B0E08093250190932601A09327015C
:1006B000B09328018BE091E0909322018093210177
:1006C00087E891E090932E0180932D0183E491E0DF
:1006D0009093300180932F0185EC90E0909332014C
:1006E0008093310184EC90E0909334018093330146
:1006F00080EC90E0909336018093350181EC90E09E
:10070000909338018093370182EC90E090933A0106
:100710008093390186EC90E090933C0180933B01FB
:1007200084E080933D0183E080933E0187E08093E5
:100730003F0185E08093400181E08093410108956D
:10074000F8940C94CB03A1E21A2EAA1BBB1BFD014B
:100750000DC0AA1FBB1FEE1FFF1FA217B307E407A0
:10076000F50720F0A21BB30BE40BF50B661F771FF8
:10077000881F991F1A9469F76095709580959095D8
:100780009B01AC01BD01CF010895EE0FFF1F059045
:0A079000F491E02D0994F894FFCFD6
:10079A00626C696E6B2100000000000D024101B914
:0807AA0001E201C90102020095
:00000001FF
